{
  "address": "0xF65C4C70463676DC2e0834e8b64261F802e63183",
  "abi": [
    {
      "inputs": [
        {
          "internalType": "contract IChildERC20",
          "name": "_withdrawalToken",
          "type": "address"
        },
        {
          "internalType": "uint256",
          "name": "_minWithdrawalAmount",
          "type": "uint256"
        },
        {
          "internalType": "uint256",
          "name": "_maxWithdrawalRecipients",
          "type": "uint256"
        }
      ],
      "stateMutability": "nonpayable",
      "type": "constructor"
    },
    {
      "anonymous": false,
      "inputs": [
        {
          "indexed": true,
          "internalType": "address",
          "name": "bridger",
          "type": "address"
        },
        {
          "indexed": false,
          "internalType": "bytes",
          "name": "withdrawalMessage",
          "type": "bytes"
        },
        {
          "indexed": false,
          "internalType": "uint256",
          "name": "amount",
          "type": "uint256"
        }
      ],
      "name": "BridgedWithdrawals",
      "type": "event"
    },
    {
      "anonymous": false,
      "inputs": [
        {
          "indexed": true,
          "internalType": "address",
          "name": "depositor",
          "type": "address"
        },
        {
          "indexed": true,
          "internalType": "address",
          "name": "recipient",
          "type": "address"
        },
        {
          "indexed": false,
          "internalType": "uint256",
          "name": "amount",
          "type": "uint256"
        }
      ],
      "name": "Deposit",
      "type": "event"
    },
    {
      "anonymous": false,
      "inputs": [
        {
          "indexed": false,
          "internalType": "bytes",
          "name": "message",
          "type": "bytes"
        }
      ],
      "name": "MessageSent",
      "type": "event"
    },
    {
      "anonymous": false,
      "inputs": [
        {
          "indexed": true,
          "internalType": "bytes32",
          "name": "role",
          "type": "bytes32"
        },
        {
          "indexed": true,
          "internalType": "bytes32",
          "name": "previousAdminRole",
          "type": "bytes32"
        },
        {
          "indexed": true,
          "internalType": "bytes32",
          "name": "newAdminRole",
          "type": "bytes32"
        }
      ],
      "name": "RoleAdminChanged",
      "type": "event"
    },
    {
      "anonymous": false,
      "inputs": [
        {
          "indexed": true,
          "internalType": "bytes32",
          "name": "role",
          "type": "bytes32"
        },
        {
          "indexed": true,
          "internalType": "address",
          "name": "account",
          "type": "address"
        },
        {
          "indexed": true,
          "internalType": "address",
          "name": "sender",
          "type": "address"
        }
      ],
      "name": "RoleGranted",
      "type": "event"
    },
    {
      "anonymous": false,
      "inputs": [
        {
          "indexed": true,
          "internalType": "bytes32",
          "name": "role",
          "type": "bytes32"
        },
        {
          "indexed": true,
          "internalType": "address",
          "name": "account",
          "type": "address"
        },
        {
          "indexed": true,
          "internalType": "address",
          "name": "sender",
          "type": "address"
        }
      ],
      "name": "RoleRevoked",
      "type": "event"
    },
    {
      "anonymous": false,
      "inputs": [
        {
          "indexed": true,
          "internalType": "address",
          "name": "recipient",
          "type": "address"
        },
        {
          "indexed": false,
          "internalType": "uint256",
          "name": "amount",
          "type": "uint256"
        }
      ],
      "name": "Withdrawal",
      "type": "event"
    },
    {
      "inputs": [],
      "name": "DEFAULT_ADMIN_ROLE",
      "outputs": [
        {
          "internalType": "bytes32",
          "name": "",
          "type": "bytes32"
        }
      ],
      "stateMutability": "view",
      "type": "function"
    },
    {
      "inputs": [],
      "name": "STATE_SYNCER_ROLE",
      "outputs": [
        {
          "internalType": "bytes32",
          "name": "",
          "type": "bytes32"
        }
      ],
      "stateMutability": "view",
      "type": "function"
    },
    {
      "inputs": [
        {
          "internalType": "address",
          "name": "",
          "type": "address"
        }
      ],
      "name": "balance",
      "outputs": [
        {
          "internalType": "uint256",
          "name": "",
          "type": "uint256"
        }
      ],
      "stateMutability": "view",
      "type": "function"
    },
    {
      "inputs": [
        {
          "internalType": "bytes32[]",
          "name": "encodedWithdrawals",
          "type": "bytes32[]"
        }
      ],
      "name": "bridgeWithdrawals",
      "outputs": [],
      "stateMutability": "nonpayable",
      "type": "function"
    },
    {
      "inputs": [
        {
          "internalType": "address",
          "name": "recipient",
          "type": "address"
        },
        {
          "internalType": "uint96",
          "name": "amount",
          "type": "uint96"
        }
      ],
      "name": "depositFor",
      "outputs": [],
      "stateMutability": "nonpayable",
      "type": "function"
    },
    {
      "inputs": [
        {
          "internalType": "bytes32",
          "name": "role",
          "type": "bytes32"
        }
      ],
      "name": "getRoleAdmin",
      "outputs": [
        {
          "internalType": "bytes32",
          "name": "",
          "type": "bytes32"
        }
      ],
      "stateMutability": "view",
      "type": "function"
    },
    {
      "inputs": [
        {
          "internalType": "bytes32",
          "name": "role",
          "type": "bytes32"
        },
        {
          "internalType": "uint256",
          "name": "index",
          "type": "uint256"
        }
      ],
      "name": "getRoleMember",
      "outputs": [
        {
          "internalType": "address",
          "name": "",
          "type": "address"
        }
      ],
      "stateMutability": "view",
      "type": "function"
    },
    {
      "inputs": [
        {
          "internalType": "bytes32",
          "name": "role",
          "type": "bytes32"
        }
      ],
      "name": "getRoleMemberCount",
      "outputs": [
        {
          "internalType": "uint256",
          "name": "",
          "type": "uint256"
        }
      ],
      "stateMutability": "view",
      "type": "function"
    },
    {
      "inputs": [
        {
          "internalType": "bytes32",
          "name": "role",
          "type": "bytes32"
        },
        {
          "internalType": "address",
          "name": "account",
          "type": "address"
        }
      ],
      "name": "grantRole",
      "outputs": [],
      "stateMutability": "nonpayable",
      "type": "function"
    },
    {
      "inputs": [
        {
          "internalType": "bytes32",
          "name": "role",
          "type": "bytes32"
        },
        {
          "internalType": "address",
          "name": "account",
          "type": "address"
        }
      ],
      "name": "hasRole",
      "outputs": [
        {
          "internalType": "bool",
          "name": "",
          "type": "bool"
        }
      ],
      "stateMutability": "view",
      "type": "function"
    },
    {
      "inputs": [],
      "name": "maxWithdrawalRecipients",
      "outputs": [
        {
          "internalType": "uint256",
          "name": "",
          "type": "uint256"
        }
      ],
      "stateMutability": "view",
      "type": "function"
    },
    {
      "inputs": [],
      "name": "minWithdrawalAmount",
      "outputs": [
        {
          "internalType": "uint256",
          "name": "",
          "type": "uint256"
        }
      ],
      "stateMutability": "view",
      "type": "function"
    },
    {
      "inputs": [
        {
          "internalType": "uint256",
          "name": "",
          "type": "uint256"
        },
        {
          "internalType": "bytes",
          "name": "message",
          "type": "bytes"
        }
      ],
      "name": "onStateReceive",
      "outputs": [],
      "stateMutability": "nonpayable",
      "type": "function"
    },
    {
      "inputs": [
        {
          "internalType": "bytes32",
          "name": "role",
          "type": "bytes32"
        },
        {
          "internalType": "address",
          "name": "account",
          "type": "address"
        }
      ],
      "name": "renounceRole",
      "outputs": [],
      "stateMutability": "nonpayable",
      "type": "function"
    },
    {
      "inputs": [
        {
          "internalType": "bytes32",
          "name": "role",
          "type": "bytes32"
        },
        {
          "internalType": "address",
          "name": "account",
          "type": "address"
        }
      ],
      "name": "revokeRole",
      "outputs": [],
      "stateMutability": "nonpayable",
      "type": "function"
    },
    {
      "inputs": [
        {
          "internalType": "uint256",
          "name": "_maxWithdrawalRecipients",
          "type": "uint256"
        }
      ],
      "name": "setMaxWithdrawalRecipients",
      "outputs": [],
      "stateMutability": "nonpayable",
      "type": "function"
    },
    {
      "inputs": [
        {
          "internalType": "uint256",
          "name": "_minWithdrawalAmount",
          "type": "uint256"
        }
      ],
      "name": "setMinWithdrawalAmount",
      "outputs": [],
      "stateMutability": "nonpayable",
      "type": "function"
    },
    {
      "inputs": [
        {
          "internalType": "uint256",
          "name": "amount",
          "type": "uint256"
        }
      ],
      "name": "withdraw",
      "outputs": [],
      "stateMutability": "nonpayable",
      "type": "function"
    },
    {
      "inputs": [],
      "name": "withdrawalToken",
      "outputs": [
        {
          "internalType": "contract IChildERC20",
          "name": "",
          "type": "address"
        }
      ],
      "stateMutability": "view",
      "type": "function"
    }
  ],
  "transactionHash": "0x1b77481ad48675f1e5bf8ebe29c4820f89f395d4352b190419e7d82a6c464f52",
  "args": [
    "0xfe4F5145f6e09952a5ba9e956ED0C25e3Fa4c7F1",
    0,
    "79228162514264337593543950335"
  ],
  "solcInputHash": "2dc58dad6f425f71f12052883a8fbd67",
  "bytecode": "0x60a06040523480156200001157600080fd5b506040516200162438038062001624833981810160405260608110156200003757600080fd5b50805160208201516040909201519091906200005e6000336001600160e01b03620000f016565b604080517053544154455f53594e4345525f524f4c4560781b815290519081900360110190206200009b906110016001600160e01b03620000f016565b60408051808201909152600b81526a10da1a5b19151d5b9b995b60aa1b6020820152620000d1906001600160e01b036200010916565b60609290921b6001600160601b0319166080526003556004556200036d565b6200010582826001600160e01b03620001ab16565b5050565b806040516020018082805190602001908083835b602083106200013e5780518252601f1990920191602091820191016200011d565b51815160209384036101000a60001901801990921691161790527f3a20494e53554646494349454e545f5045524d495353494f4e530000000000009190930190815260408051808303600519018152601a90920190528051620001059550600194509201919050620002cb565b600082815260208181526040909120620001d091839062000de36200022d821b17901c565b156200010557620001e96001600160e01b036200025616565b6001600160a01b0316816001600160a01b0316837f2f8788117e7eff1d82e926ec794901d17c78024a50270940304540a733656f0d60405160405180910390a45050565b60006200024d836001600160a01b0384166001600160e01b036200025b16565b90505b92915050565b335b90565b60006200027283836001600160e01b03620002b316565b620002aa5750815460018181018455600084815260208082209093018490558454848252828601909352604090209190915562000250565b50600062000250565b60009081526001919091016020526040902054151590565b828054600181600116156101000203166002900490600052602060002090601f016020900481019282601f106200030e57805160ff19168380011785556200033e565b828001600101855582156200033e579182015b828111156200033e57825182559160200191906001019062000321565b506200034c92915062000350565b5090565b6200025891905b808211156200034c576000815560010162000357565b60805160601c61128a6200039a600039806105ed52806107dc5280610a5b5280610c40525061128a6000f3fe608060405234801561001057600080fd5b50600436106101215760003560e01c80638312f149116100ad578063a217fddf11610071578063a217fddf146103c2578063c3c13265146103ca578063ca15c873146103ff578063d547741f1461041c578063e3d670d71461044857610121565b80638312f149146102ca57806385b5b14d146102d25780638ce5022b146102ef5780639010d07c1461035f57806391d148541461038257610121565b806336568abe116100f457806336568abe1461024d5780634dee4498146102795780635188875b1461028157806359c4a878146102a5578063793b4bbd146102c257610121565b8063248a9ca31461012657806326c53bea146101555780632e1a7d4d146102045780632f2ff15d14610221575b600080fd5b6101436004803603602081101561013c57600080fd5b503561046e565b60408051918252519081900360200190f35b6102026004803603604081101561016b57600080fd5b8135919081019060408101602082013564010000000081111561018d57600080fd5b82018360208201111561019f57600080fd5b803590602001918460018302840111640100000000831117156101c157600080fd5b91908080601f016020809104026020016040519081016040528093929190818152602001838380828437600092019190915250929550610483945050505050565b005b6102026004803603602081101561021a57600080fd5b5035610569565b6102026004803603604081101561023757600080fd5b50803590602001356001600160a01b03166106e9565b6102026004803603604081101561026357600080fd5b50803590602001356001600160a01b0316610750565b6101436107b1565b6102896107da565b604080516001600160a01b039092168252519081900360200190f35b610202600480360360208110156102bb57600080fd5b50356107fe565b610143610879565b61014361087f565b610202600480360360208110156102e857600080fd5b5035610885565b6102026004803603602081101561030557600080fd5b81019060208101813564010000000081111561032057600080fd5b82018360208201111561033257600080fd5b8035906020019184602083028401116401000000008311171561035457600080fd5b509092509050610900565b6102896004803603604081101561037557600080fd5b5080359060200135610bc1565b6103ae6004803603604081101561039857600080fd5b50803590602001356001600160a01b0316610be8565b604080519115158252519081900360200190f35b610143610c06565b610202600480360360408110156103e057600080fd5b5080356001600160a01b031690602001356001600160601b0316610c0b565b6101436004803603602081101561041557600080fd5b5035610d61565b6102026004803603604081101561043257600080fd5b50803590602001356001600160a01b0316610d78565b6101436004803603602081101561045e57600080fd5b50356001600160a01b0316610dd1565b60009081526020819052604090206002015490565b604080517053544154455f53594e4345525f524f4c4560781b815290519081900360110190206104ba816104b5610df8565b610be8565b60019061055a5760405162461bcd60e51b815260206004820190815282546002600019610100600184161502019091160460248301819052909182916044909101908490801561054b5780601f106105205761010080835404028352916020019161054b565b820191906000526020600020905b81548152906001019060200180831161052e57829003601f168201915b50509250505060405180910390fd5b5061056482610dfc565b505050565b33600090815260026020526040902054818110156105b85760405162461bcd60e51b81526004018080602001828103825260238152602001806111e06023913960400191505060405180910390fd5b3360008181526002602090815260408083208686039055805163a9059cbb60e01b8152600481019490945260248401869052517f00000000000000000000000000000000000000000000000000000000000000006001600160a01b03169363a9059cbb9360448083019493928390030190829087803b15801561063a57600080fd5b505af115801561064e573d6000803e3d6000fd5b505050506040513d602081101561066457600080fd5b50516106af576040805162461bcd60e51b8152602060048201526015602482015274151bdad95b881d1c985b9cd9995c8819985a5b1959605a1b604482015290519081900360640190fd5b60408051838152905133917f7fcf532c15f0a6db0bd6d0e038bea71d30d808c7d98cb3bf7268a95bf5081b65919081900360200190a25050565b600082815260208190526040902060020154610707906104b5610df8565b6107425760405162461bcd60e51b815260040180806020018281038252602f815260200180611181602f913960400191505060405180910390fd5b61074c8282610dff565b5050565b610758610df8565b6001600160a01b0316816001600160a01b0316146107a75760405162461bcd60e51b815260040180806020018281038252602f815260200180611226602f913960400191505060405180910390fd5b61074c8282610e6e565b604080517053544154455f53594e4345525f524f4c4560781b8152905190819003601101902081565b7f000000000000000000000000000000000000000000000000000000000000000081565b600061080c816104b5610df8565b6001906108725760405162461bcd60e51b815260206004820190815282546002600019610100600184161502019091160460248301819052909182916044909101908490801561054b5780601f106105205761010080835404028352916020019161054b565b5050600455565b60045481565b60035481565b6000610893816104b5610df8565b6001906108f95760405162461bcd60e51b815260206004820190815282546002600019610100600184161502019091160460248301819052909182916044909101908490801561054b5780601f106105205761010080835404028352916020019161054b565b5050600355565b60045481111561094d576040805162461bcd60e51b8152602060048201526013602482015272546f6f206d616e7920726563697069656e747360681b604482015290519081900360640190fd5b6000805b82811015610a015760008061097786868581811061096b57fe5b90506020020135610edd565b6001600160a01b0382166000908152600260205260409020546001600160601b03821696870196929450909250146109e05760405162461bcd60e51b81526004018080602001828103825260238152602001806112036023913960400191505060405180910390fd5b506001600160a01b0316600090815260026020526040812055600101610951565b50600354811015610a59576040805162461bcd60e51b815260206004820152601f60248201527f5769746864726177616c2062656c6f77206d696e696d756d20616d6f756e7400604482015290519081900360640190fd5b7f00000000000000000000000000000000000000000000000000000000000000006001600160a01b0316632e1a7d4d826040518263ffffffff1660e01b815260040180828152602001915050600060405180830381600087803b158015610abf57600080fd5b505af1158015610ad3573d6000803e3d6000fd5b50505050606083836040516020018083836020028082843780830192505050925050506040516020818303038152906040529050610b1081610ef1565b336001600160a01b03167fa5f7c77287315b55b64da15e8b233ff915f902063fdc3ea757031214d0531d5c82846040518080602001838152602001828103825284818151815260200191508051906020019080838360005b83811015610b80578181015183820152602001610b68565b50505050905090810190601f168015610bad5780820380516001836020036101000a031916815260200191505b50935050505060405180910390a250505050565b6000828152602081905260408120610bdf908363ffffffff610f8d16565b90505b92915050565b6000828152602081905260408120610bdf908363ffffffff610f9916565b600081565b604080516323b872dd60e01b81523360048201523060248201526001600160601b038316604482015290516001600160a01b037f000000000000000000000000000000000000000000000000000000000000000016916323b872dd9160648083019260209291908290030181600087803b158015610c8857600080fd5b505af1158015610c9c573d6000803e3d6000fd5b505050506040513d6020811015610cb257600080fd5b5051610cfd576040805162461bcd60e51b8152602060048201526015602482015274151bdad95b881d1c985b9cd9995c8819985a5b1959605a1b604482015290519081900360640190fd5b6001600160a01b03821660008181526002602090815260409182902080546001600160601b0386169081019091558251908152915133927f5548c837ab068cf56a2c2479df0882a4922fd203edb7517321831d95078c5f6292908290030190a35050565b6000818152602081905260408120610be290610fae565b600082815260208190526040902060020154610d96906104b5610df8565b6107a75760405162461bcd60e51b81526004018080602001828103825260308152602001806111b06030913960400191505060405180910390fd5b60026020526000908152604090205481565b6000610bdf836001600160a01b038416610fb9565b3390565b50565b6000828152602081905260409020610e1d908263ffffffff610de316565b1561074c57610e2a610df8565b6001600160a01b0316816001600160a01b0316837f2f8788117e7eff1d82e926ec794901d17c78024a50270940304540a733656f0d60405160405180910390a45050565b6000828152602081905260409020610e8c908263ffffffff61100316565b1561074c57610e99610df8565b6001600160a01b0316816001600160a01b0316837ff6391f5c32d9c69d2a47ea670b442974b53935d1edc7fd64eb21e047a839171b60405160405180910390a45050565b606081901c916001600160601b0390911690565b7f8c5261668696ce22758910d05bab8f186d6eb247ceac2af2e82c7dc17669b036816040518080602001828103825283818151815260200191508051906020019080838360005b83811015610f50578181015183820152602001610f38565b50505050905090810190601f168015610f7d5780820380516001836020036101000a031916815260200191505b509250505060405180910390a150565b6000610bdf8383611018565b6000610bdf836001600160a01b03841661107c565b6000610be282611094565b6000610fc5838361107c565b610ffb57508154600181810184556000848152602080822090930184905584548482528286019093526040902091909155610be2565b506000610be2565b6000610bdf836001600160a01b038416611098565b8154600090821061105a5760405162461bcd60e51b815260040180806020018281038252602281526020018061115f6022913960400191505060405180910390fd5b82600001828154811061106957fe5b9060005260206000200154905092915050565b60009081526001919091016020526040902054151590565b5490565b6000818152600183016020526040812054801561115457835460001980830191908101906000908790839081106110cb57fe5b90600052602060002001549050808760000184815481106110e857fe5b60009182526020808320909101929092558281526001898101909252604090209084019055865487908061111857fe5b60019003818190600052602060002001600090559055866001016000878152602001908152602001600020600090556001945050505050610be2565b6000915050610be256fe456e756d657261626c655365743a20696e646578206f7574206f6620626f756e6473416363657373436f6e74726f6c3a2073656e646572206d75737420626520616e2061646d696e20746f206772616e74416363657373436f6e74726f6c3a2073656e646572206d75737420626520616e2061646d696e20746f207265766f6b65496e73756666696369656e742062616c616e636520666f72207769746864726177616c4d75737420776974686472617720616c6c206f66207573657227732062616c616e6365416363657373436f6e74726f6c3a2063616e206f6e6c792072656e6f756e636520726f6c657320666f722073656c66a26469706673582212209b92e6e0f5f9941a071dbec73af5ccbf6800abd4fd44ad63cbe6ce263d46746a64736f6c63430006080033",
  "devdoc": {
    "methods": {
      "bridgeWithdrawals(bytes32[])": {
        "details": "Withdrawals are encoded by shifting the recipient address into the upper bytes of the bytes32 object.     This leaves 12 bytes to store the withdrawal amount in the lower bits.     e.g. A deposit of 100 (0x64) to the address 0xf35a15fa6dc1C11C8F242663fEa308Cd85688adA           results in 0xf35a15fa6dc1c11c8f242663fea308cd85688ada000000000000000000000064     *      This array is concatenated and passed to the RootWithdrawalBatcher on Ethereum to redistribute funds",
        "params": {
          "encodedWithdrawals": "- an array of bytes32 objects which each represent a withdrawal to a recipient's account on Ethereum"
        }
      },
      "constructor": {
        "params": {
          "_maxWithdrawalRecipients": "- The maximum number of recipients which can included in a single withdrawal",
          "_minWithdrawalAmount": "- The minimum number of tokens which must be included in a withdrawal",
          "_withdrawalToken": "- ERC20 token which this contract is batching withdrawals for"
        }
      },
      "depositFor(address,uint96)": {
        "params": {
          "amount": "- amount of funds to be deposited for recipient",
          "recipient": "- address on root chain which will be able to claim funds"
        }
      },
      "getRoleAdmin(bytes32)": {
        "details": "Returns the admin role that controls `role`. See {grantRole} and {revokeRole}.     * To change a role's admin, use {_setRoleAdmin}."
      },
      "getRoleMember(bytes32,uint256)": {
        "details": "Returns one of the accounts that have `role`. `index` must be a value between 0 and {getRoleMemberCount}, non-inclusive.     * Role bearers are not sorted in any particular way, and their ordering may change at any point.     * WARNING: When using {getRoleMember} and {getRoleMemberCount}, make sure you perform all queries on the same block. See the following https://forum.openzeppelin.com/t/iterating-over-elements-on-enumerableset-in-openzeppelin-contracts/2296[forum post] for more information."
      },
      "getRoleMemberCount(bytes32)": {
        "details": "Returns the number of accounts that have `role`. Can be used together with {getRoleMember} to enumerate all bearers of a role."
      },
      "grantRole(bytes32,address)": {
        "details": "Grants `role` to `account`.     * If `account` had not been already granted `role`, emits a {RoleGranted} event.     * Requirements:     * - the caller must have ``role``'s admin role."
      },
      "hasRole(bytes32,address)": {
        "details": "Returns `true` if `account` has been granted `role`."
      },
      "onStateReceive(uint256,bytes)": {
        "details": "This method will be called by Matic chain internally. This is executed without transaction using a system call."
      },
      "renounceRole(bytes32,address)": {
        "details": "Revokes `role` from the calling account.     * Roles are often managed via {grantRole} and {revokeRole}: this function's purpose is to provide a mechanism for accounts to lose their privileges if they are compromised (such as when a trusted device is misplaced).     * If the calling account had been granted `role`, emits a {RoleRevoked} event.     * Requirements:     * - the caller must be `account`."
      },
      "revokeRole(bytes32,address)": {
        "details": "Revokes `role` from `account`.     * If `account` had been granted `role`, emits a {RoleRevoked} event.     * Requirements:     * - the caller must have ``role``'s admin role."
      },
      "withdraw(uint256)": {
        "params": {
          "amount": "- amount of funds to be withdrawn for recipient"
        }
      }
    }
  },
  "userdoc": {
    "methods": {
      "bridgeWithdrawals(bytes32[])": {
        "notice": "Bundles a number of user's balances into a single withdrawal from Matic"
      },
      "depositFor(address,uint96)": {
        "notice": "Transfers user's funds to the contract to be included in a withdrawal to another account, increasing its balance"
      },
      "onStateReceive(uint256,bytes)": {
        "notice": "Receive state sync from matic contracts"
      },
      "withdraw(uint256)": {
        "notice": "Withdraws from user's internal balance back to their account on Matic"
      }
    }
  },
  "storageLayout": {
    "storage": [
      {
        "astId": 22,
        "contract": "contracts/child/ChildWithdrawalBatcher.sol:ChildWithdrawalBatcher",
        "label": "_roles",
        "offset": 0,
        "slot": "0",
        "type": "t_mapping(t_bytes32,t_struct(RoleData)18_storage)"
      },
      {
        "astId": 2739,
        "contract": "contracts/child/ChildWithdrawalBatcher.sol:ChildWithdrawalBatcher",
        "label": "_revertMsg",
        "offset": 0,
        "slot": "1",
        "type": "t_string_storage"
      },
      {
        "astId": 2352,
        "contract": "contracts/child/ChildWithdrawalBatcher.sol:ChildWithdrawalBatcher",
        "label": "balance",
        "offset": 0,
        "slot": "2",
        "type": "t_mapping(t_address,t_uint256)"
      },
      {
        "astId": 2354,
        "contract": "contracts/child/ChildWithdrawalBatcher.sol:ChildWithdrawalBatcher",
        "label": "minWithdrawalAmount",
        "offset": 0,
        "slot": "3",
        "type": "t_uint256"
      },
      {
        "astId": 2356,
        "contract": "contracts/child/ChildWithdrawalBatcher.sol:ChildWithdrawalBatcher",
        "label": "maxWithdrawalRecipients",
        "offset": 0,
        "slot": "4",
        "type": "t_uint256"
      }
    ],
    "types": {
      "t_address": {
        "encoding": "inplace",
        "label": "address",
        "numberOfBytes": "20"
      },
      "t_array(t_bytes32)dyn_storage": {
        "base": "t_bytes32",
        "encoding": "dynamic_array",
        "label": "bytes32[]",
        "numberOfBytes": "32"
      },
      "t_bytes32": {
        "encoding": "inplace",
        "label": "bytes32",
        "numberOfBytes": "32"
      },
      "t_mapping(t_address,t_uint256)": {
        "encoding": "mapping",
        "key": "t_address",
        "label": "mapping(address => uint256)",
        "numberOfBytes": "32",
        "value": "t_uint256"
      },
      "t_mapping(t_bytes32,t_struct(RoleData)18_storage)": {
        "encoding": "mapping",
        "key": "t_bytes32",
        "label": "mapping(bytes32 => struct AccessControl.RoleData)",
        "numberOfBytes": "32",
        "value": "t_struct(RoleData)18_storage"
      },
      "t_mapping(t_bytes32,t_uint256)": {
        "encoding": "mapping",
        "key": "t_bytes32",
        "label": "mapping(bytes32 => uint256)",
        "numberOfBytes": "32",
        "value": "t_uint256"
      },
      "t_string_storage": {
        "encoding": "bytes",
        "label": "string",
        "numberOfBytes": "32"
      },
      "t_struct(AddressSet)2026_storage": {
        "encoding": "inplace",
        "label": "struct EnumerableSet.AddressSet",
        "members": [
          {
            "astId": 2025,
            "contract": "contracts/child/ChildWithdrawalBatcher.sol:ChildWithdrawalBatcher",
            "label": "_inner",
            "offset": 0,
            "slot": "0",
            "type": "t_struct(Set)1761_storage"
          }
        ],
        "numberOfBytes": "64"
      },
      "t_struct(RoleData)18_storage": {
        "encoding": "inplace",
        "label": "struct AccessControl.RoleData",
        "members": [
          {
            "astId": 15,
            "contract": "contracts/child/ChildWithdrawalBatcher.sol:ChildWithdrawalBatcher",
            "label": "members",
            "offset": 0,
            "slot": "0",
            "type": "t_struct(AddressSet)2026_storage"
          },
          {
            "astId": 17,
            "contract": "contracts/child/ChildWithdrawalBatcher.sol:ChildWithdrawalBatcher",
            "label": "adminRole",
            "offset": 0,
            "slot": "2",
            "type": "t_bytes32"
          }
        ],
        "numberOfBytes": "96"
      },
      "t_struct(Set)1761_storage": {
        "encoding": "inplace",
        "label": "struct EnumerableSet.Set",
        "members": [
          {
            "astId": 1756,
            "contract": "contracts/child/ChildWithdrawalBatcher.sol:ChildWithdrawalBatcher",
            "label": "_values",
            "offset": 0,
            "slot": "0",
            "type": "t_array(t_bytes32)dyn_storage"
          },
          {
            "astId": 1760,
            "contract": "contracts/child/ChildWithdrawalBatcher.sol:ChildWithdrawalBatcher",
            "label": "_indexes",
            "offset": 0,
            "slot": "1",
            "type": "t_mapping(t_bytes32,t_uint256)"
          }
        ],
        "numberOfBytes": "64"
      },
      "t_uint256": {
        "encoding": "inplace",
        "label": "uint256",
        "numberOfBytes": "32"
      }
    }
  }
}