{
  "address": "0xF65C4C70463676DC2e0834e8b64261F802e63183",
  "abi": [
    {
      "inputs": [
        {
          "internalType": "contract IERC20",
          "name": "_withdrawalToken",
          "type": "address"
        },
        {
          "internalType": "address",
          "name": "_checkpointManager",
          "type": "address"
        },
        {
          "internalType": "address",
          "name": "_childTunnel",
          "type": "address"
        }
      ],
      "stateMutability": "nonpayable",
      "type": "constructor"
    },
    {
      "anonymous": false,
      "inputs": [
        {
          "indexed": true,
          "internalType": "address",
          "name": "recipient",
          "type": "address"
        },
        {
          "indexed": false,
          "internalType": "uint256",
          "name": "amount",
          "type": "uint256"
        }
      ],
      "name": "Claim",
      "type": "event"
    },
    {
      "anonymous": false,
      "inputs": [
        {
          "indexed": true,
          "internalType": "bytes32",
          "name": "role",
          "type": "bytes32"
        },
        {
          "indexed": true,
          "internalType": "bytes32",
          "name": "previousAdminRole",
          "type": "bytes32"
        },
        {
          "indexed": true,
          "internalType": "bytes32",
          "name": "newAdminRole",
          "type": "bytes32"
        }
      ],
      "name": "RoleAdminChanged",
      "type": "event"
    },
    {
      "anonymous": false,
      "inputs": [
        {
          "indexed": true,
          "internalType": "bytes32",
          "name": "role",
          "type": "bytes32"
        },
        {
          "indexed": true,
          "internalType": "address",
          "name": "account",
          "type": "address"
        },
        {
          "indexed": true,
          "internalType": "address",
          "name": "sender",
          "type": "address"
        }
      ],
      "name": "RoleGranted",
      "type": "event"
    },
    {
      "anonymous": false,
      "inputs": [
        {
          "indexed": true,
          "internalType": "bytes32",
          "name": "role",
          "type": "bytes32"
        },
        {
          "indexed": true,
          "internalType": "address",
          "name": "account",
          "type": "address"
        },
        {
          "indexed": true,
          "internalType": "address",
          "name": "sender",
          "type": "address"
        }
      ],
      "name": "RoleRevoked",
      "type": "event"
    },
    {
      "inputs": [],
      "name": "DEFAULT_ADMIN_ROLE",
      "outputs": [
        {
          "internalType": "bytes32",
          "name": "",
          "type": "bytes32"
        }
      ],
      "stateMutability": "view",
      "type": "function"
    },
    {
      "inputs": [],
      "name": "SEND_MESSAGE_EVENT_SIG",
      "outputs": [
        {
          "internalType": "bytes32",
          "name": "",
          "type": "bytes32"
        }
      ],
      "stateMutability": "view",
      "type": "function"
    },
    {
      "inputs": [
        {
          "internalType": "address",
          "name": "",
          "type": "address"
        }
      ],
      "name": "balance",
      "outputs": [
        {
          "internalType": "uint256",
          "name": "",
          "type": "uint256"
        }
      ],
      "stateMutability": "view",
      "type": "function"
    },
    {
      "inputs": [],
      "name": "checkpointManager",
      "outputs": [
        {
          "internalType": "contract ICheckpointManager",
          "name": "",
          "type": "address"
        }
      ],
      "stateMutability": "view",
      "type": "function"
    },
    {
      "inputs": [],
      "name": "childTunnel",
      "outputs": [
        {
          "internalType": "address",
          "name": "",
          "type": "address"
        }
      ],
      "stateMutability": "view",
      "type": "function"
    },
    {
      "inputs": [],
      "name": "claim",
      "outputs": [],
      "stateMutability": "nonpayable",
      "type": "function"
    },
    {
      "inputs": [
        {
          "internalType": "address",
          "name": "recipient",
          "type": "address"
        }
      ],
      "name": "claimFor",
      "outputs": [],
      "stateMutability": "nonpayable",
      "type": "function"
    },
    {
      "inputs": [
        {
          "internalType": "bytes32",
          "name": "role",
          "type": "bytes32"
        }
      ],
      "name": "getRoleAdmin",
      "outputs": [
        {
          "internalType": "bytes32",
          "name": "",
          "type": "bytes32"
        }
      ],
      "stateMutability": "view",
      "type": "function"
    },
    {
      "inputs": [
        {
          "internalType": "bytes32",
          "name": "role",
          "type": "bytes32"
        },
        {
          "internalType": "uint256",
          "name": "index",
          "type": "uint256"
        }
      ],
      "name": "getRoleMember",
      "outputs": [
        {
          "internalType": "address",
          "name": "",
          "type": "address"
        }
      ],
      "stateMutability": "view",
      "type": "function"
    },
    {
      "inputs": [
        {
          "internalType": "bytes32",
          "name": "role",
          "type": "bytes32"
        }
      ],
      "name": "getRoleMemberCount",
      "outputs": [
        {
          "internalType": "uint256",
          "name": "",
          "type": "uint256"
        }
      ],
      "stateMutability": "view",
      "type": "function"
    },
    {
      "inputs": [
        {
          "internalType": "bytes32",
          "name": "role",
          "type": "bytes32"
        },
        {
          "internalType": "address",
          "name": "account",
          "type": "address"
        }
      ],
      "name": "grantRole",
      "outputs": [],
      "stateMutability": "nonpayable",
      "type": "function"
    },
    {
      "inputs": [
        {
          "internalType": "bytes32",
          "name": "role",
          "type": "bytes32"
        },
        {
          "internalType": "address",
          "name": "account",
          "type": "address"
        }
      ],
      "name": "hasRole",
      "outputs": [
        {
          "internalType": "bool",
          "name": "",
          "type": "bool"
        }
      ],
      "stateMutability": "view",
      "type": "function"
    },
    {
      "inputs": [
        {
          "internalType": "bytes32",
          "name": "",
          "type": "bytes32"
        }
      ],
      "name": "processedExits",
      "outputs": [
        {
          "internalType": "bool",
          "name": "",
          "type": "bool"
        }
      ],
      "stateMutability": "view",
      "type": "function"
    },
    {
      "inputs": [
        {
          "internalType": "bytes",
          "name": "inputData",
          "type": "bytes"
        }
      ],
      "name": "receiveMessage",
      "outputs": [],
      "stateMutability": "nonpayable",
      "type": "function"
    },
    {
      "inputs": [
        {
          "internalType": "bytes32",
          "name": "role",
          "type": "bytes32"
        },
        {
          "internalType": "address",
          "name": "account",
          "type": "address"
        }
      ],
      "name": "renounceRole",
      "outputs": [],
      "stateMutability": "nonpayable",
      "type": "function"
    },
    {
      "inputs": [
        {
          "internalType": "bytes32",
          "name": "role",
          "type": "bytes32"
        },
        {
          "internalType": "address",
          "name": "account",
          "type": "address"
        }
      ],
      "name": "revokeRole",
      "outputs": [],
      "stateMutability": "nonpayable",
      "type": "function"
    },
    {
      "inputs": [],
      "name": "withdrawalToken",
      "outputs": [
        {
          "internalType": "contract IERC20",
          "name": "",
          "type": "address"
        }
      ],
      "stateMutability": "view",
      "type": "function"
    }
  ],
  "transactionHash": "0xf21dfdf53349c7a562d77c1c220b10d183de4872bbe054ad732e92b59c11094f",
  "args": [
    "0x655f2166b0709cd575202630952d71e2bb0d61af",
    "0x2890bA17EfE978480615e330ecB65333b880928e",
    "0x0000000000000000000000000000000000000000"
  ],
  "solcInputHash": "2dc58dad6f425f71f12052883a8fbd67",
  "bytecode": "0x60e06040523480156200001157600080fd5b50604051620023d4380380620023d4833981810160405260608110156200003757600080fd5b50805160208201516040909201519091908181620000606000336001600160e01b03620000b116565b6001600160601b0319606083901b166080526001600160a01b0381166200008857306200008a565b805b6001600160601b0319606091821b811660a05295901b90941660c05250620001e992505050565b620000c682826001600160e01b03620000ca16565b5050565b600082815260208181526040909120620000ef918390620007576200014c821b17901c565b15620000c657620001086001600160e01b036200017516565b6001600160a01b0316816001600160a01b0316837f2f8788117e7eff1d82e926ec794901d17c78024a50270940304540a733656f0d60405160405180910390a45050565b60006200016c836001600160a01b0384166001600160e01b036200017916565b90505b92915050565b3390565b60006200019083836001600160e01b03620001d116565b620001c8575081546001818101845560008481526020808220909301849055845484825282860190935260409020919091556200016f565b5060006200016f565b60009081526001919091016020526040902054151590565b60805160601c60a05160601c60c05160601c6121a66200022e600039806104b652806106325250806104ef5280610a6452508061055d52806116a052506121a66000f3fe608060405234801561001057600080fd5b506004361061010b5760003560e01c80639010d07c116100a2578063ca15c87311610071578063ca15c87314610265578063d547741f14610282578063ddeae033146102ae578063e3d670d7146102d4578063f953cec7146102fa5761010b565b80639010d07c1461020657806391d1485414610229578063a217fddf14610255578063c0857ba01461025d5761010b565b80634e71d92d116100de5780634e71d92d146101a15780635188875b146101a9578063607f2d42146101cd5780636d6aa34d146101fe5761010b565b80630e387de614610110578063248a9ca31461012a5780632f2ff15d1461014757806336568abe14610175575b600080fd5b6101186103a0565b60408051918252519081900360200190f35b6101186004803603602081101561014057600080fd5b50356103c4565b6101736004803603604081101561015d57600080fd5b50803590602001356001600160a01b03166103dc565b005b6101736004803603604081101561018b57600080fd5b50803590602001356001600160a01b0316610448565b6101736104a9565b6101b16104b4565b604080516001600160a01b039092168252519081900360200190f35b6101ea600480360360208110156101e357600080fd5b50356104d8565b604080519115158252519081900360200190f35b6101b16104ed565b6101b16004803603604081101561021c57600080fd5b5080359060200135610511565b6101ea6004803603604081101561023f57600080fd5b50803590602001356001600160a01b0316610538565b610118610556565b6101b161055b565b6101186004803603602081101561027b57600080fd5b503561057f565b6101736004803603604081101561029857600080fd5b50803590602001356001600160a01b0316610596565b610173600480360360208110156102c457600080fd5b50356001600160a01b03166105ef565b610118600480360360208110156102ea57600080fd5b50356001600160a01b031661072f565b6101736004803603602081101561031057600080fd5b81019060208101813564010000000081111561032b57600080fd5b82018360208201111561033d57600080fd5b8035906020019184600183028401116401000000008311171561035f57600080fd5b91908080601f016020809104026020016040519081016040528093929190818152602001838380828437600092019190915250929550610741945050505050565b7f8c5261668696ce22758910d05bab8f186d6eb247ceac2af2e82c7dc17669b03681565b6000818152602081905260409020600201545b919050565b6000828152602081905260409020600201546103ff906103fa61076c565b610538565b61043a5760405162461bcd60e51b815260040180806020018281038252602f815260200180611f8c602f913960400191505060405180910390fd5b6104448282610770565b5050565b61045061076c565b6001600160a01b0316816001600160a01b03161461049f5760405162461bcd60e51b815260040180806020018281038252602f8152602001806120fa602f913960400191505060405180910390fd5b61044482826107df565b6104b2336105ef565b565b7f000000000000000000000000000000000000000000000000000000000000000081565b60026020526000908152604090205460ff1681565b7f000000000000000000000000000000000000000000000000000000000000000081565b600082815260208190526040812061052f908363ffffffff61084e16565b90505b92915050565b600082815260208190526040812061052f908363ffffffff61085a16565b600081565b7f000000000000000000000000000000000000000000000000000000000000000081565b60008181526020819052604081206105329061086f565b6000828152602081905260409020600201546105b4906103fa61076c565b61049f5760405162461bcd60e51b8152600401808060200182810382526030815260200180611fe36030913960400191505060405180910390fd5b6001600160a01b038082166000818152600360209081526040808320805490849055815163a9059cbb60e01b8152600481019590955260248501819052905190947f0000000000000000000000000000000000000000000000000000000000000000169363a9059cbb9360448083019493928390030190829087803b15801561067757600080fd5b505af115801561068b573d6000803e3d6000fd5b505050506040513d60208110156106a157600080fd5b50516106ec576040805162461bcd60e51b8152602060048201526015602482015274151bdad95b881d1c985b9cd9995c8819985a5b1959605a1b604482015290519081900360640190fd5b6040805182815290516001600160a01b038416917f47cee97cb7acd717b3c0aa1435d004cd5b3c8c57d70dbceb4e4458bbd60e39d4919081900360200190a25050565b60036020526000908152604090205481565b606061074c8261087a565b905061044481610d54565b600061052f836001600160a01b038416610d60565b3390565b600082815260208190526040902061078e908263ffffffff61075716565b156104445761079b61076c565b6001600160a01b0316816001600160a01b0316837f2f8788117e7eff1d82e926ec794901d17c78024a50270940304540a733656f0d60405160405180910390a45050565b60008281526020819052604090206107fd908263ffffffff610daa16565b156104445761080a61076c565b6001600160a01b0316816001600160a01b0316837ff6391f5c32d9c69d2a47ea670b442974b53935d1edc7fd64eb21e047a839171b60405160405180910390a45050565b600061052f8383610dbf565b600061052f836001600160a01b038416610e23565b600061053282610e3b565b60608061088e61088984610e3f565b610eba565b905060006108af826002815181106108a257fe5b602002602001015161103c565b6108d46108cf846008815181106108c257fe5b6020026020010151611184565b61124e565b6108e4846009815181106108a257fe5b6040516020018084815260200183805190602001908083835b6020831061091c5780518252601f1990920191602091820191016108fd565b51815160209384036101000a6000190180199092169116179052920193845250604080518085038152938201815283519382019390932060008181526002909252929020549194505060ff161591506109a890505760405162461bcd60e51b81526004018080602001828103825260228152602001806120626022913960400191505060405180910390fd5b6000818152600260205260409020805460ff1916600117905581516060906109e490610889906109df90869060069081106108c257fe5b610e3f565b90506109ee611f2a565b610a0b826003815181106109fe57fe5b6020026020010151610eba565b610a1b856009815181106108a257fe5b81518110610a2557fe5b602002602001015190506060610a3a82610eba565b9050610a5981600081518110610a4c57fe5b60200260200101516113c1565b6001600160a01b03167f00000000000000000000000000000000000000000000000000000000000000006001600160a01b031614610ade576040805162461bcd60e51b815260206004820181905260248201527f526f6f7454756e6e656c3a20494e56414c49445f4348494c445f54554e4e454c604482015290519081900360640190fd5b610b26610af1866006815181106108c257fe5b610b01876008815181106108c257fe5b610b11886007815181106108c257fe5b610b21896005815181106108a257fe5b611451565b610b615760405162461bcd60e51b81526004018080602001828103825260218152602001806120846021913960400191505060405180910390fd5b610bcf610b74866002815181106108a257fe5b610b84876003815181106108a257fe5b610b94886004815181106108a257fe5b60001b610ba7896005815181106108a257fe5b60001b610bba8a6000815181106108a257fe5b610bca8b6001815181106108c257fe5b611698565b506060610be2826001815181106109fe57fe5b90507f8c5261668696ce22758910d05bab8f186d6eb247ceac2af2e82c7dc17669b03660001b610c18826000815181106108a257fe5b14610c6a576040805162461bcd60e51b815260206004820152601d60248201527f526f6f7454756e6e656c3a20494e56414c49445f5349474e4154555245000000604482015290519081900360640190fd5b6060610c7c836002815181106108c257fe5b90506060818060200190516020811015610c9557600080fd5b8101908080516040519392919084640100000000821115610cb557600080fd5b908301906020820185811115610cca57600080fd5b8251640100000000811182820188101715610ce457600080fd5b82525081516020918201929091019080838360005b83811015610d11578181015183820152602001610cf9565b50505050905090810190601f168015610d3e5780820380516001836020036101000a031916815260200191505b5060405250919c9b505050505050505050505050565b610d5d816117f9565b50565b6000610d6c8383610e23565b610da257508154600181810184556000848152602080822090930184905584548482528286019093526040902091909155610532565b506000610532565b600061052f836001600160a01b038416611857565b81546000908210610e015760405162461bcd60e51b8152600401808060200182810382526022815260200180611f456022913960400191505060405180910390fd5b826000018281548110610e1057fe5b9060005260206000200154905092915050565b60009081526001919091016020526040902054151590565b5490565b610e47611f2a565b6000825111610e9d576040805162461bcd60e51b815260206004820152601f60248201527f524c505265616465723a20494e56414c49445f42595445535f4c454e47544800604482015290519081900360640190fd5b506040805180820190915281518152602082810190820152919050565b6060610ec58261191d565b610f16576040805162461bcd60e51b815260206004820152601860248201527f524c505265616465723a204954454d5f4e4f545f4c4953540000000000000000604482015290519081900360640190fd5b6000610f2183611949565b905060608167ffffffffffffffff81118015610f3c57600080fd5b50604051908082528060200260200182016040528015610f7657816020015b610f63611f2a565b815260200190600190039081610f5b5790505b5090506000610f8885602001516119d5565b85519091508114610fca5760405162461bcd60e51b81526004018080602001828103825260278152602001806120a56027913960400191505060405180910390fd5b6000610fd98660200151611a6e565b60208701510190506000805b8581101561103057610ff6836119d5565b915060405180604001604052808381526020018481525085828151811061101957fe5b602090810291909101015291810191600101610fe5565b50929695505050505050565b60006110478261191d565b15611099576040805162461bcd60e51b815260206004820181905260248201527f524c505265616465723a204445434f44494e475f4c4953545f41535f55494e54604482015290519081900360640190fd5b8151602110156110f0576040805162461bcd60e51b815260206004820152601e60248201527f524c505265616465723a20494e56414c49445f55494e545f4c454e4754480000604482015290519081900360640190fd5b60006110ff83602001516119d5565b835190915081146111415760405162461bcd60e51b81526004018080602001828103825260278152602001806121296027913960400191505060405180910390fd5b60006111508460200151611a6e565b8451602080870151830180519394509184900392919083101561117a57826020036101000a820491505b5095945050505050565b6060600061119583602001516119d5565b835190915081146111d75760405162461bcd60e51b8152600401808060200182810382526028815260200180611fbb6028913960400191505060405180910390fd5b60006111e68460200151611a6e565b845190915081900360608167ffffffffffffffff8111801561120757600080fd5b506040519080825280601f01601f191660200182016040528015611232576020820181803683370190505b509050600081602001905061117a848860200151018285611ad1565b6040805160208101909152600081528151606091901561053257600080611276600086611b1c565b60f81c9050600181148061128d57508060ff166003145b1561131c57600185516002020367ffffffffffffffff811180156112b057600080fd5b506040519080825280601f01601f1916602001820160405280156112db576020820181803683370190505b50925060006112eb600187611b1c565b905080846000815181106112fb57fe5b60200101906001600160f81b031916908160001a905350600192505061136d565b600285516002020367ffffffffffffffff8111801561133a57600080fd5b506040519080825280601f01601f191660200182016040528015611365576020820181803683370190505b509250600091505b60ff82165b83518110156113b85761138d8360ff16820360020187611b1c565b84828151811061139957fe5b60200101906001600160f81b031916908160001a905350600101611372565b50505092915050565b60006113cc8261191d565b156114085760405162461bcd60e51b815260040180806020018281038252602381526020018061203f6023913960400191505060405180910390fd5b81516015146114485760405162461bcd60e51b81526004018080602001828103825260218152602001806121506021913960400191505060405180910390fd5b6105328261103c565b600061145b611f2a565b61146484610e3f565b9050606061147182610eba565b9050606080856000826114838b61124e565b905080516000141561149f576000975050505050505050611690565b60005b86518110156116875781518311156114c557600098505050505050505050611690565b6114e18782815181106114d457fe5b6020026020010151611b79565b95508580519060200120841461150257600098505050505050505050611690565b6115118782815181106109fe57fe5b94508451601114156115ce57815183141561156d578c8051906020012061153e866010815181106108c257fe5b80519060200120141561155c57600198505050505050505050611690565b600098505050505050505050611690565b600082848151811061157b57fe5b016020015160f81c905060108111156115a05760009950505050505050505050611690565b6115bf868260ff16815181106115b257fe5b6020026020010151611be0565b9450506001929092019161167f565b84516002141561155c5760006115f46115ed876000815181106108c257fe5b8486611c7f565b90508251818501141561164a578d80519060200120611619876001815181106108c257fe5b8051906020012014156116385760019950505050505050505050611690565b60009950505050505050505050611690565b806116615760009950505050505050505050611690565b8084019350611676866001815181106115b257fe5b945061167f9050565b6001016114a2565b50505050505050505b949350505050565b6000806000807f00000000000000000000000000000000000000000000000000000000000000006001600160a01b03166341539d4a876040518263ffffffff1660e01b81526004018082815260200191505060a06040518083038186803b15801561170257600080fd5b505afa158015611716573d6000803e3d6000fd5b505050506040513d60a081101561172c57600080fd5b5080516020820151606090920151909450909250905061179b6117558b8463ffffffff611d5e16565b6040805160208082018f90528183018e9052606082018d905260808083018d90528351808403909101815260a0909201909252805191012090858863ffffffff611dbb16565b6117ec576040805162461bcd60e51b815260206004820152601a60248201527f526f6f7454756e6e656c3a20494e56414c49445f484541444552000000000000604482015290519081900360640190fd5b9998505050505050505050565b60205b81518111610444578181015160008061181483611f11565b6001600160a01b03909116600090815260036020908152604090912080546bffffffffffffffffffffffff909316929092019091559390930192506117fc915050565b60008181526001830160205260408120548015611913578354600019808301919081019060009087908390811061188a57fe5b90600052602060002001549050808760000184815481106118a757fe5b6000918252602080832090910192909255828152600189810190925260409020908401905586548790806118d757fe5b60019003818190600052602060002001600090559055866001016000878152602001908152602001600020600090556001945050505050610532565b6000915050610532565b6020810151805160009190821a9060c082101561193f576000925050506103d7565b5060019392505050565b60008060009050600061195f8460200151611a6e565b602085015185519181019250015b808210156119cc5761197e826119d5565b82019150808211156119c15760405162461bcd60e51b815260040180806020018281038252602c815260200180612013602c913960400191505060405180910390fd5b60019092019161196d565b50909392505050565b80516000908190811a60808110156119f05760019150611a67565b60b8811015611a0557607e1981019150611a67565b60c0811015611a325760b78103600185019450806020036101000a85510460018201810193505050611a67565b60f8811015611a475760be1981019150611a67565b60f78103600185019450806020036101000a855104600182018101935050505b5092915050565b8051600090811a6080811015611a885760009150506103d7565b60b8811080611aa3575060c08110801590611aa3575060f881105b15611ab25760019150506103d7565b60c0811015611ac65760b5190190506103d7565b60f5190190506103d7565b80611adb57611b17565b5b60208110611afb578251825260209283019290910190601f1901611adc565b8251825160208390036101000a60001901801990921691161782525b505050565b60006002830615611b4d576010826002850481518110611b3857fe5b016020015160f81c81611b4757fe5b06611b6f565b6010826002850481518110611b5e57fe5b016020015160f81c81611b6d57fe5b045b60f81b9392505050565b606080826000015167ffffffffffffffff81118015611b9757600080fd5b506040519080825280601f01601f191660200182016040528015611bc2576020820181803683370190505b5090506000816020019050611a678460200151828660000151611ad1565b600080611bf083602001516119d5565b83519091508114611c325760405162461bcd60e51b815260040180806020018281038252602e8152602001806120cc602e913960400191505060405180910390fd5b8251602114611c725760405162461bcd60e51b8152600401808060200182810382526025815260200180611f676025913960400191505060405180910390fd5b5050602001516001015190565b6000806060611c8d8661124e565b90506060815167ffffffffffffffff81118015611ca957600080fd5b506040519080825280601f01601f191660200182016040528015611cd4576020820181803683370190505b509050845b82518601811015611d2e576000878281518110611cf257fe5b602001015160f81c60f81b9050808388840381518110611d0e57fe5b60200101906001600160f81b031916908160001a90535050600101611cd9565b50808051906020012082805190602001201415611d4e5781519250611d53565b600092505b509095945050505050565b600082821115611db5576040805162461bcd60e51b815260206004820152601e60248201527f536166654d6174683a207375627472616374696f6e206f766572666c6f770000604482015290519081900360640190fd5b50900390565b60006020825181611dc857fe5b0615611e12576040805162461bcd60e51b8152602060048201526014602482015273092dcecc2d8d2c840e0e4dedecc40d8cadccee8d60631b604482015290519081900360640190fd5b60006020835181611e1f57fe5b0490508060020a8510611e71576040805162461bcd60e51b81526020600482015260156024820152744c65616620696e64657820697320746f6f2062696760581b604482015290519081900360640190fd5b60008660205b85518111611f035785810151925060028806611ec35781836040516020018083815260200182815260200192505050604051602081830303815290604052805190602001209150611ef5565b828260405160200180838152602001828152602001925050506040516020818303038152906040528051906020012091505b600288049750602001611e77565b509094149695505050505050565b606081901c916bffffffffffffffffffffffff90911690565b60405180604001604052806000815260200160008152509056fe456e756d657261626c655365743a20696e646578206f7574206f6620626f756e6473524c505265616465723a20494e56414c49445f55494e545f5354524943545f4c454e475448416363657373436f6e74726f6c3a2073656e646572206d75737420626520616e2061646d696e20746f206772616e74524c505265616465723a2042595445535f4445434f4445445f4c454e4754485f4d49534d41544348416363657373436f6e74726f6c3a2073656e646572206d75737420626520616e2061646d696e20746f207265766f6b65524c505265616465723a204e554d5f4954454d535f4445434f4445445f4c454e4754485f4d49534d41544348524c505265616465723a204445434f44494e475f4c4953545f41535f41444452455353526f6f7454756e6e656c3a20455849545f414c52454144595f50524f434553534544526f6f7454756e6e656c3a20494e56414c49445f524543454950545f50524f4f46524c505265616465723a204c4953545f4445434f4445445f4c454e4754485f4d49534d41544348524c505265616465723a2055494e545f5354524943545f4445434f4445445f4c454e4754485f4d49534d41544348416363657373436f6e74726f6c3a2063616e206f6e6c792072656e6f756e636520726f6c657320666f722073656c66524c505265616465723a2055494e545f4445434f4445445f4c454e4754485f4d49534d41544348524c505265616465723a20494e56414c49445f414444524553535f4c454e475448a2646970667358221220e9fd89192c4d93448c18f8cb72de978b4d83fe3962da814e7a84a7683bff148464736f6c63430006080033",
  "devdoc": {
    "methods": {
      "claimFor(address)": {
        "params": {
          "recipient": "- the address of the recipient for which to claim"
        }
      },
      "constructor": {
        "details": "constructor argument _childTunnel is needed for testing. In a production deploy this should be set to zero     RootWithdrawalBatcherTunnel will then only accept messages from the a contract on the child chain at the same address as itself",
        "params": {
          "_checkpointManager": "- ERC20 token which this contract distributes",
          "_childTunnel": "- address of contract which this contract accepts messages from. Set to 0 in a production deploy.",
          "_withdrawalToken": "- ERC20 token which this contract distributes"
        }
      },
      "getRoleAdmin(bytes32)": {
        "details": "Returns the admin role that controls `role`. See {grantRole} and {revokeRole}.     * To change a role's admin, use {_setRoleAdmin}."
      },
      "getRoleMember(bytes32,uint256)": {
        "details": "Returns one of the accounts that have `role`. `index` must be a value between 0 and {getRoleMemberCount}, non-inclusive.     * Role bearers are not sorted in any particular way, and their ordering may change at any point.     * WARNING: When using {getRoleMember} and {getRoleMemberCount}, make sure you perform all queries on the same block. See the following https://forum.openzeppelin.com/t/iterating-over-elements-on-enumerableset-in-openzeppelin-contracts/2296[forum post] for more information."
      },
      "getRoleMemberCount(bytes32)": {
        "details": "Returns the number of accounts that have `role`. Can be used together with {getRoleMember} to enumerate all bearers of a role."
      },
      "grantRole(bytes32,address)": {
        "details": "Grants `role` to `account`.     * If `account` had not been already granted `role`, emits a {RoleGranted} event.     * Requirements:     * - the caller must have ``role``'s admin role."
      },
      "hasRole(bytes32,address)": {
        "details": "Returns `true` if `account` has been granted `role`."
      },
      "receiveMessage(bytes)": {
        "details": "This function verifies if the transaction actually happened on child chain",
        "params": {
          "inputData": "RLP encoded data of the reference tx containing following list of fields 0 - headerNumber - Checkpoint header block number containing the reference tx 1 - blockProof - Proof that the block header (in the child chain) is a leaf in the submitted merkle root 2 - blockNumber - Block number containing the reference tx on child chain 3 - blockTime - Reference tx block time 4 - txRoot - Transactions root of block 5 - receiptRoot - Receipts root of block 6 - receipt - Receipt of the reference transaction 7 - receiptProof - Merkle proof of the reference receipt 8 - branchMask - 32 bits denoting the path of receipt in merkle tree 9 - receiptLogIndex - Log Index to read from the receipt"
        }
      },
      "renounceRole(bytes32,address)": {
        "details": "Revokes `role` from the calling account.     * Roles are often managed via {grantRole} and {revokeRole}: this function's purpose is to provide a mechanism for accounts to lose their privileges if they are compromised (such as when a trusted device is misplaced).     * If the calling account had been granted `role`, emits a {RoleRevoked} event.     * Requirements:     * - the caller must be `account`."
      },
      "revokeRole(bytes32,address)": {
        "details": "Revokes `role` from `account`.     * If `account` had been granted `role`, emits a {RoleRevoked} event.     * Requirements:     * - the caller must have ``role``'s admin role."
      }
    }
  },
  "userdoc": {
    "methods": {
      "claim()": {
        "notice": "Claim caller's balance, sending the tokens to their address"
      },
      "claimFor(address)": {
        "notice": "Claim a recipient's balance for them, sending the tokens to their address"
      },
      "receiveMessage(bytes)": {
        "notice": "receive message from L2 to L1, validated by proof"
      }
    }
  },
  "storageLayout": {
    "storage": [
      {
        "astId": 22,
        "contract": "contracts/root/RootWithdrawalBatcher.sol:RootWithdrawalBatcher",
        "label": "_roles",
        "offset": 0,
        "slot": "0",
        "type": "t_mapping(t_bytes32,t_struct(RoleData)18_storage)"
      },
      {
        "astId": 2739,
        "contract": "contracts/root/RootWithdrawalBatcher.sol:RootWithdrawalBatcher",
        "label": "_revertMsg",
        "offset": 0,
        "slot": "1",
        "type": "t_string_storage"
      },
      {
        "astId": 3097,
        "contract": "contracts/root/RootWithdrawalBatcher.sol:RootWithdrawalBatcher",
        "label": "processedExits",
        "offset": 0,
        "slot": "2",
        "type": "t_mapping(t_bytes32,t_bool)"
      },
      {
        "astId": 2938,
        "contract": "contracts/root/RootWithdrawalBatcher.sol:RootWithdrawalBatcher",
        "label": "balance",
        "offset": 0,
        "slot": "3",
        "type": "t_mapping(t_address,t_uint256)"
      }
    ],
    "types": {
      "t_address": {
        "encoding": "inplace",
        "label": "address",
        "numberOfBytes": "20"
      },
      "t_array(t_bytes32)dyn_storage": {
        "base": "t_bytes32",
        "encoding": "dynamic_array",
        "label": "bytes32[]",
        "numberOfBytes": "32"
      },
      "t_bool": {
        "encoding": "inplace",
        "label": "bool",
        "numberOfBytes": "1"
      },
      "t_bytes32": {
        "encoding": "inplace",
        "label": "bytes32",
        "numberOfBytes": "32"
      },
      "t_mapping(t_address,t_uint256)": {
        "encoding": "mapping",
        "key": "t_address",
        "label": "mapping(address => uint256)",
        "numberOfBytes": "32",
        "value": "t_uint256"
      },
      "t_mapping(t_bytes32,t_bool)": {
        "encoding": "mapping",
        "key": "t_bytes32",
        "label": "mapping(bytes32 => bool)",
        "numberOfBytes": "32",
        "value": "t_bool"
      },
      "t_mapping(t_bytes32,t_struct(RoleData)18_storage)": {
        "encoding": "mapping",
        "key": "t_bytes32",
        "label": "mapping(bytes32 => struct AccessControl.RoleData)",
        "numberOfBytes": "32",
        "value": "t_struct(RoleData)18_storage"
      },
      "t_mapping(t_bytes32,t_uint256)": {
        "encoding": "mapping",
        "key": "t_bytes32",
        "label": "mapping(bytes32 => uint256)",
        "numberOfBytes": "32",
        "value": "t_uint256"
      },
      "t_string_storage": {
        "encoding": "bytes",
        "label": "string",
        "numberOfBytes": "32"
      },
      "t_struct(AddressSet)2026_storage": {
        "encoding": "inplace",
        "label": "struct EnumerableSet.AddressSet",
        "members": [
          {
            "astId": 2025,
            "contract": "contracts/root/RootWithdrawalBatcher.sol:RootWithdrawalBatcher",
            "label": "_inner",
            "offset": 0,
            "slot": "0",
            "type": "t_struct(Set)1761_storage"
          }
        ],
        "numberOfBytes": "64"
      },
      "t_struct(RoleData)18_storage": {
        "encoding": "inplace",
        "label": "struct AccessControl.RoleData",
        "members": [
          {
            "astId": 15,
            "contract": "contracts/root/RootWithdrawalBatcher.sol:RootWithdrawalBatcher",
            "label": "members",
            "offset": 0,
            "slot": "0",
            "type": "t_struct(AddressSet)2026_storage"
          },
          {
            "astId": 17,
            "contract": "contracts/root/RootWithdrawalBatcher.sol:RootWithdrawalBatcher",
            "label": "adminRole",
            "offset": 0,
            "slot": "2",
            "type": "t_bytes32"
          }
        ],
        "numberOfBytes": "96"
      },
      "t_struct(Set)1761_storage": {
        "encoding": "inplace",
        "label": "struct EnumerableSet.Set",
        "members": [
          {
            "astId": 1756,
            "contract": "contracts/root/RootWithdrawalBatcher.sol:RootWithdrawalBatcher",
            "label": "_values",
            "offset": 0,
            "slot": "0",
            "type": "t_array(t_bytes32)dyn_storage"
          },
          {
            "astId": 1760,
            "contract": "contracts/root/RootWithdrawalBatcher.sol:RootWithdrawalBatcher",
            "label": "_indexes",
            "offset": 0,
            "slot": "1",
            "type": "t_mapping(t_bytes32,t_uint256)"
          }
        ],
        "numberOfBytes": "64"
      },
      "t_uint256": {
        "encoding": "inplace",
        "label": "uint256",
        "numberOfBytes": "32"
      }
    }
  }
}